:4000000000400020110000004D2600004D26000008B5044B1A6803F53F5302331A6002F035FB00BFFA46004010B5054C237833B9044B13B10448AFF300800123237010BD9F
:40004000B8C1FF1F000000007CA40000084B10B51BB108490848AFF300800848036803B910BD074B002BFBD0BDE81040184700BF00000000BCC1FF1F7CA40000C8C0FF1F22
:400080000000000008B562B600F070F801F08EFF054807F075F804F065FE01F0FBF902F009F801F05DFDF8E780A4000030B585B002F086FB044606F0F5FF1F4B1B689868B9
:4000C00006F0A6F91D4B1A889B78ADF808208DF80A30029BADF800301B0C8DF8023050231A460A21084600F0A7FBFF238DF80C3000238DF80D308DF80E30114B0093039B7C
:400100000A221146204600F009FC0E4B1B680E4AD4540D2C09D10B4C236811460025D5540A4806F0A7FF256003E0064A13680133136005B030BD00BF78C1FF1F94A4000033
:4001400040C2FF1FD4C1FF1F24CEFF1F98A4000070B51646002405E04D1C087802F036FB01342946B442F7DB304670BD08B50022034B1A6002F016FB024802F04DFB08BDC8
:40018000D4C1FF1FAD00000008B50020024B1860012103F041FB08BDD4C1FF1F10B5044603F088FB20B103F07FFB08B103F0AAFC03F07AFB30B103F075FD0028FBD0204658
:4001C00003F014FD10BD00BF38B504460D4603F071FB20B103F068FB08B103F093FC03F063FB38B103F05EFD0028FBD0A9B2204603F0D4FC38BD00BF70B504460A227C4B0F
:400200001A54002301251AE0794AD25C794908688118497801F00301022902D1A2F1200100E01146744A9A5C1044407800F00300022800D1203A914200D000250133032B80
:40024000E2D9002D43D06D4806F028F805F0BCFC04466B4905F0D2FF00B1694C204605F005FA02460B46674806F004FF6649204605F008FE05F0CCFF044601F0C7FD002255
:400280001146204600F07EFC204601F071FE5F48FFF784FF70BD564AD25C564908688118497801F00301022902D1A2F1200100E01146574A9A5C1044407800F0030002282F
:4002C00000D1203A914200D02E46013301E000230126032BDFD9002E40D0484805F0DEFF05F072FC04464B4905F088FF00B1494C204605F0BBF902460B46474806F0BAFEEF
:40030000204605F085FF044601F098FD00221146204600F015FD204601F030FE3F48FFF73DFF70BD324AD25C324908688118497801F00301022902D1A2F1200100E01146F5
:40034000374A9A5C1044407800F00300022800D1203A914200D03546013301E000230125012BDFD93DB32F4806F084FE01F07AFD012000F03FFF2C48FFF710FF70BD1C4AB0
:40038000D25C1C4908688118497801F00301022902D1A2F1200100E01146244A9A5C1044407800F00300022800D1203A914200D02E46013301E000230126022BDFD95EB1E0
:4003C0001B4806F057FE01F007FD002000F012FF1848FFF7E3FE70BD1748FFF7DFFE21460348FFF7F1FE1548FFF7D8FE70BD00BFECCEFF1F14C1FF1FA8A40000F0CEFF1F04
:4004000000004041B0A4000000007A44CCA40000E4A400000000FA43ECA400000CA5000024A5000028A5000044A5000060A5000064A5000080A50000A0A50000201F01007C
:4004400070B503F037FA20B103F02EFA08B103F059FB03F029FA002838D170BD1E4C204603F02CFC01460546204603F097FB00242AE0194B1B5D0A2B01D00D2B06D1174EE7
:400480007068FFF7B9FE002373601CE0A3F14102D2B2192A0DD9A3F16102D2B2192A08D9A3F13002D2B2092A03D92E2B01D0202B09D10A494A680A488354531C4B603D2B4A
:4004C00001DD3D224A600134AC42D2DB03F0DEFB0028C3D170BD00BF88CEFF1FD4C1FF1FECCEFF1F08B5002002F018FB052002F091FA012002F012FB782002F08BFA04F02B
:400500002DFD0121002004F035FD0A2002F082FAB921002004F02EFDFF21012004F02AFD8321012004F026FD5721012004F022FDB321002004F01EFD8021012004F01AFDC4
:400540000021012004F016FD0621012004F012FD0621012004F00EFDB021002004F00AFD6821012004F006FDCC21002004F002FD0D21012004F0FEFCB121002004F0FAFCFA
:400580000021012004F0F6FC1521012004F0F2FC1C21012004F0EEFC1C21012004F0EAFC8321012004F0E6FCAA21012004F0E2FCC021002004F0DEFC5021012004F0DAFCE2
:4005C0005021012004F0D6FC0121084604F0D2FC3C21012004F0CEFC1E21012004F0CAFC0821012004F0C6FCB421002004F0C2FC0221012004F0BEFC4021012004F0BAFC56
:400600000021012004F0B6FC2A21012004F0B2FC2A21012004F0AEFC0D21012004F0AAFC7821012004F0A6FCE021002004F0A2FC0221012004F09EFC0A21012004F09AFC26
:400640001121012004F096FC1D21012004F092FC2321012004F08EFC3521012004F08AFC4121012004F086FC4B21012004F082FC4B21012004F07EFC4221012004F07AFC0B
:400680003A21012004F076FC2721012004F072FC1B21012004F06EFC0821012004F06AFC0921012004F066FC0321012004F062FC0221012004F05EFC0A21012004F05AFCCE
:4006C0001121012004F056FC1D21012004F052FC2321012004F04EFC3521012004F04AFC4121012004F046FC4B21012004F042FC4B21012004F03EFC4221012004F03AFC8B
:400700003A21012004F036FC2721012004F032FC1B21012004F02EFC0821012004F02AFC0921012004F026FC0321012004F022FC0021012004F01EFC0121084604F01AFC2B
:400740003A21002004F016FC5521012004F012FC3621002004F00EFC0021012004F00AFC3521002004F006FC0021012004F002FC4421002004F0FEFB0021012004F0FAFB71
:400780000221012004F0F6FB1121002004F0F2FB2921002004F0EEFB08BD00BF30B583B005460C4601922B21002004F0E3FB290A012004F0DFFB2946012004F0DBFB0135DA
:4007C000C5F30F21012004F0D5FBA9B2012004F0D1FB2A21002004F0CDFB210A012004F0C9FB2146012004F0C5FB0134C4F30F21012004F0BFFBA1B2012004F0BBFB2C2133
:40080000002004F0B7FB9DF8062012029DF80530DB009DF8041002F4784203F4FC63134343EAD101012004F0A5FB0021084604F0A1FB03B030BD00BF2DE9F04180460E4606
:4008400015461C462B21002004F094FB4FEA1821012004F08FFB4146012004F08BFB2F464544691EC1F30F21012004F083FB691E89B2012004F07EFB2A21002004F07AFB79
:40088000310A012004F076FB3146012004F072FB25463444611EC1F30F21012004F06AFB611E89B2012004F065FB2C21002004F061FB002617E09DF81A2012029DF81930F4
:4008C000DB009DF8181002F4784203F4FC63134343EAD101012004F04DFB013400E00024AC42E8DB0136BE42F9DB0021084604F041FBBDE8F08100BF00B585B0ADF80000B0
:40090000000C8DF8020040F23F1340F2DF1200210846FFF791FF05B05DF804FB2DE9F04F87B001920393DDF8408098F8006098F8017098F8022098F80330824203DC8B465B
:400940001344984204DD0146604806F093FBB9E0801AC3B200934FF0000901990DE05C4B03EB09135B685B4505D1594B03EB09139B688B4207D009F10109564B1A689145AC
:40098000EDDB4FF0FF39B9F1FF3F0FD04FEA09134F4AD35C009A9A4215D14D4B03EB09130399D86800F058FD68B18BE0531C494A136047491B01CA189DF80000C854C2F803
:4009C00004B0019B93604FF0000ACDF808B069E0009B07FB03F303FB06F3002B00DA0733DB100BFB06F1002900DA0731C9100B44E008034443441D79D24302F00702012311
:400A000003FA02F2154008BF00234FEA091EDFF8C0C01CF80EE007FB0EFE0EFB06FEBEF1000F01DA0EF1070E01EBEE01014441440979114214BF0122002293420AD1244B54
:400A400003EB09130399D86800F006FD10B1B9F1FF3F1CD155B1019B0AEB0301029BE018039A89B280B2FFF799FE10E01A4B1A889B78ADF814208DF81630019B0AEB0301FD
:400A8000029BE018059A89B280B2FFF787FE0134E4B200E000242246A64299DC0AF1010A5FFA8AFAD3465745F4DC094B4FEA091903EB09029DF8001003F80910039B93810B
:400AC0001B0C937307B0BDE8F08F00BFBCA500002CCFFF1FDCC1FF1FB4A500002DE9F04385B005468946904603930C9E3778002408E0285D0096039B424604FB0791FFF76A
:400B00000DFF0134284606F0BAFB8442F1D305B0BDE8F08310B586B0164A82FB00329211C417111B4FF47A7303FB1101124B83FB0103C917C1EBA303121B104903A806F0D8
:400B400037FB9DF80C30302B02D120238DF80C3000238DF814308DF815308DF81630084B0093059B4622DC2103A8FFF7B7FF06B010BD00BFD34D621067666666E4A5000087
:400B80005CA6000070B58CB00D4614464F4A82FB00329211C617911B4FF47A7303FB11014B4B83FB0103C917C1EBA303921B494903A806F0FDFA9DF81230302B02D1202308
:400BC0008DF81230444B1A889B78ADF818208DF81A30069BADF800301B0C8DF80230042350223C214FF4AD70FFF726FE002D5CD0FF238DF81C3000238DF81D308DF81E3066
:400C0000364B0093079B1C22FA2103A8FFF766FF092C59DD632C15DCFF238DF8203000238DF821308DF82230089BADF800301B0C8DF80230042310223C214FF4CD70FFF76B
:400C4000FBFD41E0B4F57A7F15DAFF238DF8243000238DF825308DF82630099BADF800301B0C8DF80230042310223C214FF4C570FFF7E2FD28E042F20F739C4224DCFF23DF
:400C80008DF8283000238DF829308DF82A300A9BADF800301B0C8DF80230042310223C214FF4B570FFF7C8FD0EE000238DF82C308DF82D308DF82E30084B00930B9B1C22C5
:400CC000FA2103A8FFF70AFF0CB070BDD34D621067666666F0A50000B4A500006005010000B587B0134A82FB0032C317C3EBA2134FF47A7202FB13020F4903A806F058FA06
:400D00009DF80C30302B02D120238DF80C3000238DF814308DF815308DF81630074B0093059BE622F62103A8FFF7D8FE07B05DF804FB00BFD34D621004A600005CA600000C
:400D400030B58DB00D461446464A82FB0032C317C3EBA2134FF47A7202FB1302424902A806F026FA414B1A889B78ADF818208DF81A30069BADF800301B0C8DF80230042334
:400D80005022DE214FF4AD70FFF756FD002D58D0FF238DF81C3000238DF81D308DF81E30334B0093079BBE22FA2102A8FFF796FE092C15DCFF238DF8203000238DF8213011
:400DC0008DF82230089BADF800301B0C8DF8023004231022DE214FF4BD70FFF72DFD3FE0632C15DCFF238DF8243000238DF825308DF82630099BADF800301B0C8DF8023015
:400E000004231022DE214FF4B570FFF715FD27E0B4F57A7F24DAFF238DF8283000238DF829308DF82A300A9BADF800301B0C8DF8023004231022DE214FF4AD70FFF7FCFC66
:400E40000EE000238DF82C308DF82D308DF82E30074B00930B9BBE22FA2102A8FFF73EFE0DB030BDD34D62100CA60000B4A500006005010010B586B0164A82FB00329211FF
:400E8000C417111B4FF47A7303FB1101124B83FB0103C917C1EBA303121B104903A806F087F99DF80C30302B02D120238DF80C3000238DF814308DF815308DF81630084B5C
:400EC0000093059B91224FF48C7103A8FFF706FE06B010BDD34D6210676666661CA6000060050100000000002DE9F04F8DB00F4691469B4685B28CB24FF0000A8DF808A0C7
:400F00008DF809A08DF80AA0A4F10A01A81C029BADF800301B0C8DF802300523142289B280B2FFF789FC6E1FB6B28DF80CA08DF80DA08DF80EA0611F039BADF800301B0CB5
:400F40008DF802300523232289B23046FFF774FC8DF810A08DF811A08DF812A0049BADF800301B0C8DF802304623052221463046FFF762FC8DF814A08DF815A08DF816A0D3
:400F800005F11900059BADF800301B0C8DF8023046230522214680B2FFF74EFC8DF818A08DF819A08DF81AA004F14601069BADF800301B0C8DF802300523232289B23046FE
:400FC000FFF73AFC07F14608484604F03DFB52A3D3E9002304F0C8FC06460F46404604F033FB32463B4604F0E1F9804689468DF81CA0FF238DF81D308DF81EA03046394627
:4010000004F0C2FD1FFA80FA4046494604F0BCFD079BADF800301B0C8DF802305346192281B22846FFF708FC32463B4600203C4904F0BCF93B4B1A889B78ADF820208DF8F8
:40104000223004F0A1FD089BADF800301B0C8DF8023083B2192221462846FFF7EDFBBBF1000F1CD153E0B8B22E4B33F8042F9B78ADF824208DF8263004F11701014405F1D8
:4010800010033344181A099A89B280B2FFF786FB013600E00026042EE5DD013700E000270A2FF7DD1F4B33F8042F9B78ADF828208DF82A3004F12101281D0A9BADF80030F3
:4010C0001B0C8DF802300523102289B280B2FFF7B3FB002719E0B8B2124B33F8042F9B78ADF82C208DF82E3004F12E01091AEB1C334418440B9A89B280B2FFF74FFB0136D1
:4011000000E00026032EE6DD01370A2FF9DD0DB0BDE8F08FAFF30080B76DDBB66DDBF63F00805140B4A500002DE9F04389B02B4B1B68834203D1294B5B688B424BD09046C6
:401140000C460646254B186059600246244902A806F02EF800278DF818708DF819708DF81A70DFF88C90CDF80090069B2522462102A8FFF7B3FC1B4984FB0123E518E21781
:40118000C2EBE5254FF4616303FB1545164B83FB05032B44ED1781FB04010C44C5EB6313C2EBE422114902A806F002F88DF81C708DF81D708DF81E70CDF80090079B45228D
:4011C000462102A8FFF78AFC5FFA88F3F2B223211E20FFF789FE09B0BDE8F083CCC0FF1F28A60000C5B3A2918988888830A600006005010030B589B005461E4B03AC93E89E
:40120000030084E8030000238DF814308DF815308DF81630184B0093059BBE2214212046FFF75CFC95B1154B029300238DF81830FF228DF819208DF81A30114B0093069BF3
:40124000E6221E2102A8FFF749FC11E00D4B0293FF238DF81C3000238DF81D308DF81E30074B0093079BE6221E2102A8FFF736FC09B030BD3CA60000600501004F4E20005E
:401280005CA600004F46460010B586B0144B1A889B78ADF80C208DF80E300398FFF72CFB00248DF810408DF81140FF238DF812300C4B0093049B642255210B48FFF70EFC66
:4012C0008DF814408DF815408DF81640074B0093059BB92291210648FFF700FC06B010BDB4A500005CA6000044A600006005010050A6000008B5044A136801331360034872
:4013000005F03EFF08BD00BFB4DBFF1F241D010008B5044A136801331360034805F030FF08BD00BFB8DBFF1F381D010008B5044A136801331360034805F022FF08BD00BFCF
:40134000B0DBFF1F4C1D010008B5044A136801331360034805F014FF08BD00BFACDBFF1F601D010010B501F011FC58B101F00EFC044601F013FC844204D10A4A1368013B7C
:40138000136010BD01F002FC50B101F0FFFB044601F004FC844203D0024A13680133136010BD00BFBCDBFF1F08B50D4801F0E0FB0C4803F08BFD0C4803F01EFC0B4803F03B
:4013C0006FFC0B4803F044FC00230A4A13600A4A13600A4A13600A4A13600A4A136008BDF512000065130000111300002D13000049130000ACDBFF1FB8DBFF1FB0DBFF1FF3
:40140000B4DBFF1FBCDBFF1F024B186800221A60704700BFACDBFF1F024B186800221A60704700BFB8DBFF1F024B186800221A60704700BFB0DBFF1F024B186800221A6045
:40144000704700BFB4DBFF1F024B186800221A60704700BFBCDBFF1F82B001900091C0F30740C1F3074188420DD19DF805209DF801309A4209D19DF804209DF800309A4233
:4014800005D0002004E0002002E0002000E0012002B0704770B582B0A84B1B78002B55D1A74B1B68002B43D00022A54B1A6003F02BFCA24C606000F023FA00F02FFAFFF776
:4014C00011F8FFF7E1FE656803F01EFC291A9D4805F0D0FDFEF758FE656803F015FC291A994805F0C7FD00F08BFB646803F00CFC211A964805F0BEFD00F078FC00F0E0FC1B
:4015000000F018FD924B186000F01AFD914B186000F022FD904C206000F018FD8F4B186023680BB90122226010B901228B4B1A60824B5C6803F0E8FB201A40F2DB53984229
:4015400004D901237E4A13607C4A13707B4B1B78012B46D17A4B1B6803B30024784B1C607F4B1A889B78ADF804208DF806300198FFF7C2F9764E224621463068FFF702FB7E
:40158000744D224621462868FFF7DAFB306800F03DFC286800F052FCFFF706FF00F0CAF900F0D4F9654B9C6803F0AEFB201A632805D903F0A9FB614B9860FEF741FFFFF7ED
:4015C0002BFF28B102225D4B1A7001225C4B1A60FFF72AFF28B10322584B1A700122584B1A60564B1B78022B7FD1554B1B68ABB10022534B1A6000F097F903F085FB4F4BCD
:40160000D860534B1868574B1860544B1A680121FFF7B8FAFFF710FFFFF716FFFFF70CFFD8B103F071FB454BD8604C490A684E4B83FB0203D217C2EBA3030B60092B02DCB2
:401640004FF47A720A60454C22680121454B1868FFF798FA206800F097FCFFF7F5FE0446E8B103F051FB354BD8603C4B1A683D4B196802FB04141C6042F6E0639C4202DD53
:401680001946384B1960374B1B68002B02DA0021344B19600121334B1868FFF773FAFFF7BBFE80B10122254B1A702E4B1868284C206000F0ABFB002211462068FFF762FA54
:4016C000206800F055FC1D4BDC6803F01DFB201A41F28733984208D90122184B1A70002211461B4B1868FFF74DFA144B1B78032B40F09A80124B1B68ABB10022104B1A603F
:4017000000F01EF903F000FB0C4B1861114B1868164B1860104B1A680121FFF711FBFFF78BFEFFF791FEFFF787FE002835D003F0EBFA024B186108490A6819E0E0C1FF1F69
:40174000D4C0FF1F781D0100901D0100A81D0100CCDBFF1FD4DBFF1FC8DBFF1FD0DBFF1F741D0100C4DBFF1F67666666C0DBFF1F5E4B83FB0203D217C2EBA3030B60002BF2
:4017800001DC64220A605A4C22680121594B1868FFF7D6FA206800F0FDFBFFF755FE0446E0B103F0B1FA544B1861514B1A68514B196802FB04141C60B4F5FA7F02DD4FF4C6
:4017C000FA7119604B4B1B68002B02DA0021494B19600121474B1868FFF7B2FAFFF724FE80B10122444B1A70424B1868434C206000F024FB002211462068FFF7A1FA206817
:4018000000F0BCFB3C4B1C6903F07EFA201A41F28733984208D90122374B1A7000221146364B1868FFF78CFA334B1B78012B03D0032B01D0022B57D103F066FA2E4B58619A
:401840009C6903F061FA201A63280FD903F05CFA294B986100F01AFBFFF75CF900F01AFBFFF73EFA00F01AFBFFF704FB224BDC6903F04AFA201AB0F57A7F10D303F044FA60
:401880001D4BD86100F006FD044600F0DBFC054600F002FC024629462046FFF745FC164B1C6A03F031FA201A63281DD903F02CFA114B186200F0F4F900F0A2FA012809D1DB
:4018C000FFF798FC00F01EF8FFF79EFD60B100F083FA09E00020FFF78DFC00F019F8FFF793FD08B100F0BEFA02B070BD67666666C8DBFF1FC0DBFF1FE0C1FF1FD4DBFF1F5B
:40190000704700BF08B5012003F012FB08BD00BF08B5002003F00CFB08BD00BF08B5012003F0FAFA08BD00BF08B5012003F0DCFA08BD00BF08B5002003F0D6FA08BD00BFDC
:4019400008B5012003F0DCFA08BD00BF08B5002003F0D6FA08BD00BF08B501F053FE4FF47A7001F027FE01F003FE4FF47A7001F0D7FD08BD08B541F6684303FB00F0054B50
:4019800083FB0023C017C0EB232080B201F012FE08BD00BFD34D621008B5363003F054FE09A3D3E9002303F0B5FE04F00DF9084904F01CFB074904F065FA04F04FFC80B275
:4019C00001F0AEFD08BD00BF713D0AD7A370F53F00007A440040E3450122014B1A607047D8DBFF1F00B583B002A901F8010D00230122742001F078FC01F044FD10F0020F3E
:401A0000FAD001F05BFD002301220DF10601742001F0D0FC01F036FD10F0010FFAD001F04DFD9DF8060003B05DF804FB00B583B08DF804008DF805100023022201A974208C
:401A400001F052FC01F01EFD10F0020FFAD001F035FD03B05DF804FB10B503F0F5FD1AA3D3E9002303F056FE04F0AEF81A4904F0FFF803F0FBFD16A3D3E9002303F074FFB8
:401A800004F0A2F80446002104F09AFB00B1002402210420FFF7CAFF204604F0DFFB84B2B4F5707F05D921460C4805F0E3FA4FF47074E1B20020FFF7B9FF210A0120FFF792
:401AC000B5FF10BDAFF3008055C1A8A44E40B33FAAF1D24D6210F23F00003442C81D010008B501F085FA012001F0FAFC0020FFF7B3FFFF210220FFF799FFA3210620FFF7FB
:401B000095FF30210320FFF791FF02210420FFF78DFFE0210520FFF789FF024803F052FA08BD00BFD919000008B540F28923984205D90146084805F09DFA40F28A20C10890
:401B400041F0800189B2054805F094FA03210220FFF76CFF08BD00BFF41D0100181E010010B51D4B1B682BB11C4805F009FB0022194B1A600720FFF735FF0446184B1B68CA
:401B8000984228D0164B186010F0800F02D0154805F0F6FA14F0400F02D0134805F0F0FA14F0200F02D0114805F0EAFA14F0030402D10F4805F0E4FA012C02D10D4805F0EF
:401BC000DFFA022C02D10C4805F0DAFA032C02D10A4805F0D5FA10BDD8DBFF1F381E010004C2FF1F541E0100741E0100901E0100AC1E0100C41E0100D81E0100F41E010090
:401C000008B501F057F808BD08B501F067F8002001F06CF8012001F075F801F081F800EB8003580003F010FD03A3D3E9002303F071FD03F081FF08BD5A643BDF4F8DF13FAF
:401C400008B501F04BF8002001F050F8002001F059F801F065F8263803F0F6FC06A3D3E9002303F057FD03F067FF002800DA002008BD00BFAFF300800AD7A3703D0AE73FD6
:401C800008B501F02BF8002001F030F8022001F039F801F045F8400008BD00BF00000000454B1B68002B7ED0D0B5FFF7ADFF00F6C41080B2FFF7D0FEFFF7C2FF3F4B1B68AD
:401CC000984234DA3E4B1C68FFF79EFF201A03F0BBFC35A3D3E9002303F01CFD06460F46384C206803F0C2FC32463B4603F060FB03F06AFF2060344904F080FA08B1324A14
:401D0000226032492F4B186804F05AFA10B12F4A2C4B1A602A4B186804F060F8294B196803F0A8FF04F09AFA80B2FFF723FEFFF76BFF234B1B68984234DA204B1C68FFF77A
:401D40007FFF201A03F080FC19A3D3E9002303F0E1FC06460F461B4C606803F087FC32463B4603F025FB03F02FFF6060184904F045FA08B1164A62601649124B586804F0BF
:401D80001FFA10B1134A0F4B5A600C4B186804F025F80C4B596803F06DFF04F05FFA80B2FFF7FAFDD0BD70479A9999999999C93F9A9999999999E93FDCDBFF1FE4DBFF1FB9
:401DC000E0DBFF1F08C2FF1F0000FA430000FAC300001643000016C308B50020024B1860FFF7C8FD08BD00BFDCDBFF1F08B5FFF7B3FDFFF775FEFFF703FFFFF7EDFF08BDD5
:401E0000014B1868704700BFDCDBFF1F08B5094B1860094B1B68012B0AD100F5FA6080B2FFF71AFE034B1868A53080B2FFF7A2FD08BD00BFE0DBFF1FDCDBFF1F08B5074BEA
:401E40001860074B1B68012B07D1643080B2FFF76BFE024B1888FFF79FFD08BDE4DBFF1FDCDBFF1F08B50122054B1A60054B1868FFF7CCFF044B1868FFF7E0FF08BD00BF93
:401E8000DCDBFF1FE0DBFF1FE4DBFF1F08B5FFF7BBFE08BD08B5FFF7D3FE08BD10B5FFF7F5FF0446FFF7F6FF00FB04F003F096FF024904F09BF804F0ABF910BD00007A44CD
:401EC00008B502F063FF02F0E1FF08BD38B584B2204602F0C7FF0546601C80B202F0C2FF45EA0025A01C80B202F0BCFF45EA0045E01C80B202F0B6FF45EA006038BD00BFD2
:401F000038B50D4684B22146E8B202F043FF611C89B2C5F3072002F03DFFA11C89B2C5F3074002F037FFE11C89B2280E02F032FF38BD00BF08B50020FFF7C8FF08BD00BFAF
:401F400008B50420FFF7C2FF08BD00BF08B50820FFF7BCFF08BD00BF08B50C20FFF7B6FF08BD00BF08B51020FFF7B0FF08BD00BF08B501460020FFF7C3FF08BD08B5014658
:401F80000420FFF7BDFF08BD08B501460820FFF7B7FF08BD08B501460C20FFF7B1FF08BD08B501461020FFF7ABFF08BD08B5FFF787FFFFF7D7FF03F011FF024B1860FFF7F2
:401FC0001FFE08BDF4DBFF1F08B5FFF75FFF00EB8003580003F002FF014904F007F808BD00007A440048704700A00C4510B5094B1C6802F089FE201AB0F5FA7F07D902F057
:4020000083FE044B186001F03FFC034B1860024B186810BDF8DBFF1FF0DBFF1F00487047403F4B4C08B5FFF72BFE03F0D7FE08BD08B5FFF7F7FF034903F024FF024903F02B
:40204000D5FF08BD0000164300007A4438B5FFF7EFFF002103F00EFE0446FFF7D1FE01280ED1FFF7B1FF0546FFF718FF03F0B6FE294603F0FFFD0146204603F0FBFD0446C3
:40208000FFF7B4FF30B1FFF7ADFF0146204603F0EFFD0446204638BD10B5FFF7D7FF4FF00104002104F096F808B94FF0000404F0010010BD70B5544B1C6802F025FE241AEA
:4020C000B4F5FA7FC0F29E8002F01EFE4E4B1860204603F083FE4D4903F088FF0446FFF7B5FF0146204603F0CDFE494C0146206803F0BEFD05462060FFF790FF0446014693
:40210000284604F07BF808B1414B1C600021404B186804F055F810B100223D4B1A60FFF781FF3C4904F06AF808B1394B1C60FFF779FF394904F062F868B13849204603F07C
:40214000A1FE0646324B1D68294604F057F800B135462F4B1D60FFF765FF314904F04EF868B13049204603F08DFE0646284B1D68294604F043F800B13546254B1D60FFF728
:4021800051FF294904F03AF868B12849204603F079FE06461E4B1D68294604F02FF800B135461B4B1D60FFF73DFF214904F026F868B12049204603F065FE0546144B1C68F0
:4021C000214604F01BF800B12C46114B1C60FFF729FF194903F0F4FF10B100220C4B1A60164B1C6802F090FD201A154B984209D902F08AFD114B1860054B186804F008F891
:40220000FFF7CEFE70BD00BFE8DBFF1F00007A44F4DBFF1F00F07F4500007545CDCC4C3F00A06B459A99193F00406745CDCCCC3E00E06245CDCC4C3E00404E45ECDBFF1F06
:40224000F049020010B5FFF701FF0446002103F0B7FF60B1FFF7E2FE0C4B196803F008FD04F1004103F0C2FE03F0D2FF06E02146064B186803F0BAFE03F0CAFF044B984242
:4022800000DD1846002800DA002010BDF4DBFF1F00A30200D0B582B0FFF7C4FE03F0E6F906460F460C4C206803F0E0F9CDE9000132463B46094804F0DDFE2468FFF7AEFED6
:4022C0000146204603F092FE054903F0DBFD03F09FFF02B0D0BD00BFF4DBFF1F0C1F01000000C842FEE700BFF0B40022174611E050F82760F3B226F0FF0608E001EB420581
:4023000011F812406D78A5550132013BDBB2002BF4D101372A2FEBD9F0BC704708B50A46002104F082F908BDF8B5194B1B78DBB2184E3478E4B2184F3D78EDB203F00701CE
:40234000164A11701B090132137044F00303337045F003033B700122114B1A70602210331A70802203F2E4731A70162203F21F231A70202203331A70062235331A700A20D0
:4023800000F05EFB3D7034706622064B1A70F8BDCF010049F8460040F94600406E5800400D5100407658004008B504F033F908BD38B50024364B1C80582202331A70012277
:4023C00002331A801823334A13701D2102321180023213704FF41C7102321180023213704BF67F3102321180023213704FF6FF7229490A8002310B7002310A80274A13704F
:40240000042227492748FFF7CFFF0622264B1A705222A3F580731A70244B1B78DBB2244A13704FF4E262234B1A8041F25122023B1A8019250CE0204B1B7803F0010343EA4F
:40244000440404F003044FF4F07002F0C9FD013D0DB1032CEFD115B90320FFF743FF174A4FF48073138007231370002314490B704820023108701370053213700222114B08
:402480001A70114A137843F07F03137038BD00BF8040004086400040944000409A4000405C0F004800410040004300400F010049A146004022420040254200400440004086
:4024C0000640004001400040A243004038B572B600240CE0414D630019194A0011462A44084691882858FFF719FF0134E4B2052CF0D900240BE03948A20011194B000344B1
:402500009A8D996A586AFFF74FFF0134E4B2022CF1D933494FF09040FFF7E6FE04213148FFF7FCFE042230493048FFF73DFF304A137843F0020313701032137843F00203A7
:4025400013702C4C237843F040032370A2F58632513A137843F0100313700A2226492748FFF722FF0A2226492648FFF71DFF0A2225492648FFF718FF082225492548FFF742
:4025800013FF0A2224492548FFF70EFF0A2224492448FFF709FF082223492448FFF704FF0A2223492348FFF7FFFE082222492348FFF7FAFE224A137843F008031370214DF8
:4025C00061232B70FFF7F4FEC1232B70FFF7ACFE0E2221461C48FFF7E7FE38BD241F0100AC00004800760040600F00480876004003500140A0430040FC0E004800510040ED
:40260000080F0048C0510040140F0048F0510040200F004812510040280F004820510040340F004830510040400F004842510040480F004850510040540F004862510040E0
:402640002243004000480040B043004008B503F029FE03680C2B00D1FEE7FEE708B5094B1A681044084BC31AB3F5407F02DC054B186005E003F016FE0C2303604FF0FF32D4
:40268000104608BDD8C0FF1F08DDFF1F08B5104E104D16E029686B68AC68002204E051F8040B43F8040B0432A242F8D1E868002203E0002143F8041B04328242F9D11035FC
:4026C000013E002EE6D103F07FFFFDF7DBFCFEE7010000001824010008B5114A114B1A60114A136843F40073136000230AE0032B03D80E4A52F8231000E00D490D4A42F8C4
:40270000231001332F2BF2D90B4B1A780B4B1A70084A0B4B1A60FFF7D9FE00F099F808BD0004FA050CED00E014ED00E0000000004D26000000C0FF1FBC760040C0C0FF1FF2
:4027400008ED00E07222084B1A703E22A3F580731A700622693B1A70472210331A70002203F257131A7070478965004010B502F03FFC04460A4A137843F020031370A2F597
:402780008072137843F010031370FE32137843F01003137000F04EF8204602F02DFC10BD9965004008B5054B1B7823B9FFF7CAFF0122024B1A70FFF7D9FF08BD10C2FF1FD5
:4027C000014B1878704700BF49640040034B1B7813F0040FFAD1024B187070476765004044650040014B1B689865704708ED00E04001C0B2014B1870704700BF06E400E038
:402800004022014B1A60704700E100E04022014B1A60704780E100E010B50446FFF7F6FF2046FFF7DFFF0720FFF7E2FFFFF7E8FF10BD00BF054A137843F008031370103260
:40284000137843F008031370704700BFA24300400B4A7F2313708021517007E0DA0002F1804202F5F042013BDBB21370002BF5D1DB0003F1804303F5F04300221A70704799
:40288000DCC0FF1F172815D831B103010A495A5C42F020025A5405E0030107495A5C02F0DF025A540001044A835C43F00103835400207047012070471070004017280CD803
:4028C0000001074BC1180A7942F004020A71C25C42F00102C254002070470120704700BF1070004017280BD80001064A835C03F0F103490001F00E01194381540020704755
:40290000012070471070004041F6FF73994201D14FF4005141F6FF739A4201D14FF40052172808D8C00000F1804000F5EC408180C280002070470120704700BF172805D8AB
:40294000034B03EB0010417200207047012070471070004017281BD810B4C00000F1804404F5EC44D201D2B201F07F01114321709DF804201201D2B203F00F03134363702A
:402980009DF8083003F00F03A3700020E07001E00120704710BC704710B502F029FB0A4B5B78182B0BD9084A1478013B5370E30003F1804303F5F0431B78137000E0FF24A1
:4029C00002F01AFB204610BDDCC0FF1F10F0800F0CD111F4704F0BD1C00000F1804000F5F04001808270C37000207047012070470120704710F0800F08D1C00000F180403B
:402A000000F5F0408180C280002070470120704701BE704710B5044605E0084B186802F0DFFAA4F50044B4F5004FF6D8034B586800FB04F002F0D4FA10BD00BFE4C0FF1FC9
:402A400008B5034B1B7A00FB03F002F0C9FA08BDE4C0FF1F70B504460E46074B1D681F2802D90020FFF7D4FF04F01F04103455F8240045F8246070BD08ED00E038B5044621
:402A80000D46072902D90020FFF7C2FF1F2C02D90020FFF7BDFF04F01F0000F1604000F564406D01EDB2057038BD00BF134B1B78DBB20360124A127843EA02230360114A9F
:402AC000127843EA024303600F4A127843EA026303600E4B1B78DBB243600D4A127843EA022343600B4A127843EA024343600A4A127843EA02634360704700BF03010049E3
:402B000004010049EC4600400201004901010049000100490501004906010049044A137803F0EF03000100F0100018431070704750510040014B1B681866704708ED00E04A
:402B40004001C0B2014B1870704700BF08E400E04FF48072014B1A60704700BF00E100E04FF48072014B1A60704700BF80E100E010B50446FFF7F4FF2046FFF7DBFF072053
:402B8000FFF7DEFFFFF7E4FF10BD00BF024B187800F00100704700BFC1510040024B1878C0F34000704700BFC151004010B541F6FF734FF480420121022000F089F9084C32
:402BC000207041F6FF731A460121062000F09EF96070044800F0B8F9002000F0BBF910BD14C2FF1F292D000070B52C4C2078FFF765FE6078FFF762FE294B1B78FF2B03D114
:402C0000FFF7CAFE264B1870254D2878062302461946FFF7DBFE214E341DA4B2224645F6A0312878FFF7E6FE29783078FFF786FE6B78FF2B02D1FFF7AFFE6870184D6878C5
:402C4000072302460621FFF7C1FE164A92B221466878FFF7CFFE114C69786078FFF76EFE01212078FFF70EFE01216078FFF70AFE02F0BEF90C4A137843F02003137002F0D7
:402C8000BBF90A4B1A7842F001021A701A7842F002021A700122064B1A6070BD14C2FF1FF4C0FF1FFCDBFF1F9B6400407464004080E200E008B5074BDB6823B9FFF776FF60
:402CC0000122044BDA6000F0C9F8FFF78DFF024B1B7808BD14C2FF1F63640040024A137843F004031370704774640040044B1B7803F0FF020BB90028F8D01046704700BF9C
:402D000063640040C0F10200034B33F91030034A1088181A00B27047FCDBFF1F08DCFF1F08B500F0A9F808BD704700BF08B50A280FD00C2802D0082806D102E04FF480524D
:402D400009E04FF4807206E00020FFF761FE002201E04FF480620021084B198042F2107303FB02F313F5806301D503F2FF73DB12034A13600022034B1A8008BD06DCFF1F57
:402D80000CDCFF1F08DCFF1F10B502F031F90446184A137843F0010313701032137843F00103137002F5AA520832137843F0030313701822104B1A70013B1A7842F04002DD
:402DC0001A701A7802F0FC021A70CE22053B1A700222A3F597530C3B1A70084A137843F0080313700A20FFF72BFE204602F004F910BD00BFAB43004006590040275B0040B5
:402E000010B504460A280DD00C2802D0082804D101E0C22207E0422205E00020FFF7F8FDC22200E08222034B1A702046FFF77EFF10BD00BF0259004008B5064A137843F05E
:402E4000060313700C20FFF7DBFF0022024B1A8008BD00BF0159004004DCFF1F08B5054B1B7823B9FFF7E8FF0122024B1A70FFF78BFF08BD24C2FF1F10B4124B1B881BB278
:402E800033B1104B1B881BB203EB83035C0001E00D4B1C680D4B1988411A09B242F2107303FB01F2002903DD04EBD470401003E004EBD47040104042831893FBF4F000B2EC
:402EC00010BC704706DCFF1F0CDCFF1F04DCFF1FF0B583B016461F460B4C012525700023019300932B460A4601462846FFF732FD3A4631462078FFF707FD02212078FFF781
:402F0000F1FC207803B0F0BDF6C0FF1FF0B583B016461F460B4D00242C700194009423460A4601462046FFF715FD3A4631462878FFF7EAFC02212878FFF7D4FC287803B041
:402F4000F0BD00BFF7C0FF1F014B1B681864704708ED00E04001C0B2014B1870704700BF00E400E010B50622114B1A7081220E3B1A70082202331A701E2211331A70002414
:402F800001331C704FF400420A4B1A6007210F20FFF774FD08490F20FFF75CFD1022074B1A70074B1C70074B1C70074B1C7010BDD649004080E100E01930000010DCFF1F08
:402FC00015DCFF1F14DCFF1F1FDCFF1F08B502F00FF8064A137843F0040313701032137843F00403137002F007F808BDA543004008B5074B1B7823B9FFF7B4FF0122044B4C
:403000001A70FFF7E3FF4FF40042024B1A6008BD25C2FF1F00E100E038B5A54B1C78A54B1B7813F0400F00F03A81E4B214F0010F00F01D819F4B1B78453B052B00F214817A
:40304000DFE813F006008200120112010600DF0004F0DF0504F00A04082C42D1954B1B78DBB2452B35D1944B1B7813F0FF0F10D0924B1B681B78DBB2914A137004228C4B1E
:403080001A7001228F4B1A7046228A4B1A702C46EDE08D4B1B7813F0020F0DD08B4A137843F00A0313706022824B1A704FF40042874B1A602C46DAE0864A137843F0100303
:4030C00013701022844B1A700422023B1A702C46CDE00022764B1A704A22764B1A702C46C5E00A2C2BD1794A137843F0A0031370754B1B7813F0020F14D06E4B1B7813F008
:40310000080F01D0092300E00A23704A11780B4313706022674B1A704FF400426C4B1A602C46A4E06B4A137843F0100313701022694B1A700422023B1A702C4697E0002081
:40314000FFF766FC2C4692E014F0020F36D15D4B1A78D2B2584B1B78DBB29A4210D2594A1378DBB255490968CB5CDBB254490B7004214F4B197013780133DBB2137076E0B5
:40318000514B1B7813F0020F0CD0504A137843F00A0313706022474B1A704FF400424C4B1A6064E04B4A137843F0100313701022494B1A700422023B1A7058E0424B1B7812
:4031C00013F0020F0CD0414A137843F09A0313706022384B1A704FF400423D4B1A6046E03C4A137843F01003137010223A4B1A700422023B1A70354A137843F090031370DF
:4032000035E0364A1378DBB2354908682C490978C9B2C15413780133DBB213701278D2B2304B1B78DBB29A4203D21022204B1A701DE0254B1B7813F0020F0CD0234A137835
:4032400043F00903137060221A4B1A704FF400421F4B1A600BE01F4A137843F0100313700022134B1A7002E00020FFF7D1FB14F0200F1CD00F4B1B7813F0080F01D0012321
:4032800000E00223114A11780B431370114A137803F0EF0313701022064B1A7038BD054B1B7813F0100F02D11022024B1A7038BDD749004010DCFF1F1EDCFF1F20DCFF1F92
:4032C000D84900401FDCFF1F1CDCFF1F15DCFF1F80E100E0D6490040D949004014DCFF1F18DCFF1F1DDCFF1F002948D070B40C4626490978C9B2102906D12549097811F0D4
:40330000080F11D1002112E020490978C9B260290CD14FF400451F490D601F4D297801F0F7012970002102E0012100E0022149BB4526164D2E700026184D2E70184D2A700A
:40334000184A1460184A1370134C227802F0FD0222704200D2B21548027013F0010F06D012220B4B1A700422023B1A7002E00122074B1A704FF400420D4B1A6002E002215A
:4033800008467047084670BC704700BF10DCFF1FD949004080E200E015DCFF1F1FDCFF1F1EDCFF1F20DCFF1F1CDCFF1FD849004000E100E000294AD070B40C46274909782E
:4033C000C9B2102906D12649097811F0080F11D1002112E021490978C9B260290CD14FF4004520490D60204D297801F0F7012970002102E0012100E0022159BB4926174D7C
:403400002E700026194D2E70194D2A70194A1460194A1370144C227802F0FE0222704200D2B242F001021548027013F0010F06D012220B4B1A700422023B1A7002E00122D0
:40344000074B1A704FF400420D4B1A6002E0022108467047084670BC704700BF10DCFF1FD949004080E200E015DCFF1F14DCFF1F1DDCFF1F18DCFF1F1CDCFF1FD8490040B4
:4034800000E100E04FF40042084B1A60084B1878C0B2084B1B7813F0400F01D040F004004FF40042044B1A60704700BF80E100E015DCFF1F10DCFF1F00E100E04FF4004302
:4034C000044A1360044A107800211170034A1360704700BF80E100E015DCFF1F00E100E0044A137803F0FE0300F0010018431070704700BF30510040024A137843F08003EF
:40350000137070477B650040014B1880704700BF146A0040014B1880704700BF946A0040014B1880704700BF546A004008B50F4A137803F0C00343F0090313701F32137834
:4035400043F0010313700132137843F00103137045F6C050FFF7D8FF45F6C050FFF7DAFF42F6E060FFF7DCFF08BD00BF7B65004008B5054B1B7823B9FFF7D8FF0122024B41
:403580001A70FFF7B9FF08BD26C2FF1F024A137843F08003137070477C640040014B1880704700BF18680040014B1880704700BF98680040014B1880704700BF5868004013
:4035C00008B50F4A137803F0C00343F0090313702032137843F0010313700132137843F00103137045F6C050FFF7D8FF45F6C050FFF7DAFF42F6E060FFF7DCFF08BD00BFA4
:403600007C64004008B5054B1B7823B9FFF7D8FF0122024B1A70FFF7B9FF08BD27C2FF1FF8B501F0E5FC0746404A137843F0010313701032137843F00103137001263C4BDD
:403640001E700225943B1D7002F5E2521B32137803F07F0313700020FFF7F2F9354C237803F0F9032370344A137803F0DF0313702378334323703046FFF7E2F92820FFF715
:40368000DFF92E4B1A7802F07F021A701A7802F0BF021A7023782B4323702846FFF7D0F9237843F0040323700023254A137001321370384601F0A0FC07211720FFF7DEF928
:4036C00020491720FFF7C6F907211820FFF7D6F91D491820FFF7BEF907211520FFF7CEF91A491520FFF7B6F907213046FFF7C6F917493046FFF7AEF907212846FFF7BEF9A5
:4037000014492846FFF7A6F907210320FFF7B6F911490320FFF79EF907210C20FFF7AEF90E490C20FFF796F9F8BD00BFA54300409D6000409443004012600040F85100400B
:4037400084600040554200003D40000051420000B1410000E1410000154200005D42000008B5214B18700023204A1370204A1370204A1370204A1370204A1370204A137012
:40378000204A1370204B4FF400021A604FF080721A604FF400121A6002221A6004221A6008221A6011B1012906D00BE0174A137803F0FE0313700AE0144A137843F001037C
:4037C000137004E0114A137803F0FE03137003220F4B1A708022203B1A70012001F000FC04220C4B1A7008BD3DDCFF1F40DCFF1F5CDCFF1F5FDCFF1F54DCFF1F5EDCFF1FD5
:4038000061DCFF1F3CDCFF1F00E100E009600040286000401260004038B504460D46064B1B7823B9FFF7FCFE0122034B1A7029462046FFF795FF38BD28C2FF1F00230A4A0B
:4038400013700A4A13700A4A13700A4A13700A4A13700A4A13700A4A13700322094B1A708022203B1A70704740DCFF1F5CDCFF1F5FDCFF1F54DCFF1F5EDCFF1F61DCFF1F90
:403880003CDCFF1F28600040064A1378DBB203F0FB01117003F0040303F0FF0003B10120704700BF09600040014B1878704700BF5FDCFF1F064B1B7813F0FF0F05D0044B8E
:4038C0001878C0B200221A7070470020704700BF5CDCFF1F00EB40008300024A13445878704700BF64DCFF1F431EDBB2072B0BD8064B00011A18185C00F00F00537843EA90
:403900000020023880B2704700207047FC5F0040431EDBB2072B3CD8F0B4074600EB4004A3001C4C2344DB889BB2C3F500739A4208D900EB400293002344DA8892B2C2F5F0
:40394000007292B200EB4004A300124C2344DB7843EA1223104D04012E192B55D3B2737039B909E0CE5C3D010C4C665501339BB200E000239A42F5D8420002449300054AC7
:40398000134400225A705A79D2B20001044B1A54F0BC704764DCFF1FFC5F004078600040FE5F0040431EDBB2072B0BD8420002449300054A134400225A705A79D2B2000196
:4039C000024B1A54704700BF64DCFF1FFE5F004070B5D9B1054614460E46C8B1082819D8FFF782FFA04203D22846FFF77DFF0446002305E02901094A525CF25401339BB207
:403A0000A342F7D32846FFF7CDFF04E0002402E0002400E00024204670BD00BF786000400246002001E0013080B2135C002BFAD1704700BF10B4FF2400230EE0094AD25C2B
:403A400002EB42029100084A11448A7AD2B2824201D11C4602230133DBB2012BEED9204610BC70472CDCFF1F64DCFF1F10B5204C2079FFF7DFFF237813F0800F0ED0637893
:403A8000DBB2212B2FD11B4B07221A80C0EBC000194A1044586000F03FFB10BD144B5B78DBB2202B02D0222B10D01EE0114A07231380C0EBC00310490B4453600F4A135C83
:403AC00043F00103135400F04FFB10BD084B9B780B4A22F81030094A135C43F00203135400F0D8F910BD002010BD002010BD00BF0060004048DCFF1FF8C0FF1F24DCFF1FAE
:403B000038DCFF1F10B500241F4B1C701F4B1C705C700AE01E4B185DC0B2431EDBB2072B01D8FFF73FFF0134E4B2012CF2D9194B1B7813F0FF0F1AD0154B1B7813F0FF0F92
:403B400017D0154B1B7813F0FF0F14D0114B1B78DBB2082B11D80E4B1B78DBB2082B0ED80D4B1B78DBB2082B0BD8002010BD012010BD012010BD012010BD012010BD0120F8
:403B800010BD012010BD00BF29C2FF1F24DCFF1F30DCFF1F28DCFF1F2CDCFF1F70B506460D460F4B1B780F4AD45CE4B204EB440293000D4A13441B899BB28B4209D204EB24
:403BC00044029300084A13441D89ADB20020FEF71FFF2A4631462046FFF79AFE70BD00BF29C2FF1F28DCFF1F64DCFF1F2DE9F8438046234B1B78234AD65CF6B2FFF710FF57
:403C000005460027344606EB460293001E4A13441B899BB29D4209D906EB460293001A4A1344B3F808901FFA89F900E0A9464A4608EB07013046FFF76BFEC9EB0505ADB2AA
:403C400045B906EB460293000F4A13441B899BB2994510D14F44BFB204EB440293000A4A13445B7813F0FF0FF6D025B9002211463046FFF74DFE002DC4D1BDE8F88300BF4A
:403C800029C2FF1F28DCFF1F64DCFF1F08B5034B1B78034AD05CFFF71DFE08BD29C2FF1F30DCFF1F08B5034B1B78034AD05CFFF711FE08BD29C2FF1F28DCFF1F08B5084B3F
:403CC0001B78084AD35CDBB203EB43018A0006490A44128992B201461846FFF779FE08BD29C2FF1F30DCFF1F64DCFF1FC37803F0030390F9020000280FDA032B06D002F0BD
:403D000001030B48C15442F001020EE0C2F380030848C15442F0040207E0032B05D0C2F340030548C15442F002021046704700BF28DCFF1F2CDCFF1F30DCFF1F1D4B19786E
:403D40001D4A13889BB20B449BB2138000220FE01A494B681B78DBB2194883544B6801334B600132D2B20B889BB2013B9BB20B80124B1B889BB20BB1072AE9D90D4B1B7822
:403D8000DBB2082B00D05AB10E490B7883F080030B700F210C4B197002210C4B197004E0022309490B7009490B70094B1A70014B1A7070473CDCFF1F3EDCFF1F48DCFF1F4C
:403DC00000600040D2DCFF1F5DDCFF1F40DCFF1F60DCFF1F0222074B1A708022064B1A700F22064B1A700023054A1370054A13700120704740DCFF1FD2DCFF1F5DDCFF1FE7
:403E00003CDCFF1F60DCFF1F08B5FFF797FF08BD10B4194B197801F00F010239C9B2174A13889BB20B449BB21380002011E0144A5468144B1B5CDBB2237053680133536039
:403E40000130C0B20139C9B213889BB2013B9BB213800B4B1B889BB20BB10029E7D10A4B19700A4A137883F0800313700B22084B1A7010BC704700BF296000403EDCFF1F80
:403E800048DCFF1F0060004060DCFF1FD2DCFF1F5DDCFF1F0623064A1370064A13708022054B1A700022054B1A700120704700BF40DCFF1F5DDCFF1FD2DCFF1F60DCFF1F0E
:403EC000064B9B6843B1054B9A6810709A6804490988518000229A60704700BF48DCFF1F3EDCFF1F08B5134B1A78D2B21A701B78DBB213F0800F02D00F4A137008BD0220E9
:403F0000FFF7DEFF0D4B1B7803F06003202B05D0402B06D043B900F093FC06E001F012FA03E000F037FE00E0002010B90322024B1A7008BD286000405DDCFF1F006000405D
:403F400008B5094B1978094A13889BB20B449BB213800022064B1A700120FFF7B1FF0322044B1A7008BD00BF3CDCFF1F3EDCFF1F40DCFF1F5DDCFF1F08B50B4B1B78DBB2BD
:403F8000042B06D0062B07D0022B0BD1FFF7D8FF08BDFFF73DFF08BD0320FFF791FF0322024B1A7008BD00BF40DCFF1F5DDCFF1F08B50022044B1A700120FFF781FF032234
:403FC000024B1A7008BD00BF40DCFF1F5DDCFF1F08B50B4B1B7813F0FF0F07D0084A137843F0800307490B70002313700022064B1A700120FFF764FF0322044B1A7008BD09
:404000005EDCFF1F0860004040DCFF1F5DDCFF1F08B5094B1B78DBB2042B06D0062B07D0022B07D1FFF7F0FE08BDFFF7C1FF08BDFFF7CEFF08BD00BF40DCFF1F08B5284BD7
:404040001B78DBB213F0100F48D013F0800F0CD003F00F03012B16D1FFF744FF214B1B7813F0800F11D1012312E013F0400F03D0FFF7CEFF01230BE013F0200F07D0FFF7A8
:404080007BFF012304E0002302E0002300E0002323B3134B1B7813F0800F1FD1124B1B78124A12781343124A13701278D2B2934214D10C4B1B78DBB2094A127812F0800F52
:4040C00007D1084B1B78DBB2054A1370137803F00F03044A1278D2B29342EAD108BD00BF286000405DDCFF1FD2DCFF1F60DCFF1F296000400022064B1A80064B9B682BB158
:40410000044A916800230B7092685380704700BF3EDCFF1F48DCFF1F08B50F4B1B889BB213B9FFF757FE15E002220C4B1A7000220B4B1A70FFF7DEFF0A4AD179937943EA19
:404140000123054A128892B2934201D2024A1380FFF7F4FD012008BD48DCFF1F40DCFF1FD2DCFF1F0060004008B504220B4B1A7080220B4B1A70FFF7BDFF0A4AD179937911
:4041800043EA0123084A128892B2934201D2064A13800B22054B1A70012008BD40DCFF1FD2DCFF1F0060004048DCFF1F5DDCFF1F0122094B1A700F3B9B7C084B1B7B03F089
:4041C0000303934204D0054AD37B83F08003D3730122024B5A7370470B60004064DCFF1F02220A4B1A700F3B93F82230084B1B7E03F00303012B04D0054AD37E83F0800395
:40420000D3760122024B5A76704700BF0B60004064DCFF1F04220C4B1A700F3B93F832300A4B93F8243003F00303012B06D0074A92F8273083F0800382F827300122034B9F
:4042400083F82520704700BF0B60004064DCFF1F704700BF08B5FFF7F1FA08BD08B500F0A5FC08BD70B588B0054603AC174E0FCE0FC43368237035B322232B7003236B70B0
:4042800001A8FEF713FC002402231AE008AA224412F81C2C08A901EB121111F8141CE954581C00212954981C02F00F0208AE324412F8142C2A54DA1CA9540134E4B20433BC
:4042C000DBB2212BE2D908B070BD00BF681F010010B401233EE019461A010C242148845403EB4300820020480244527912F0FF0F13D003EB430082001B480244127912F005
:40430000800F04D01801194A024494700AE01801164A02440820907004E01801134A0244802090704800084482000F480244D488E4B208010B4901448C71D088C0F30720CD
:40434000C871D088C0B20871D288C2F307224A710133DBB2082BBED9FF22054B1A7010BC704700BF7060004064DCFF1FFC5F00400A600040074B1A78074B03EBC2035B68A7
:404380001A7C824204D9C0001030184440687047002070473DDCFF1F7C1F0100F8B5404B1B7813F0FF0F79D03D4B18780138C0B2FFF7E0FF047AC2683A4B1878C0B2002352
:4043C0006AE01178884264D13749095CC9B25578A9425ED1917801F07F01D67806F00306DFF8C8E04D000D44AF000EEB07054FF0000C85F803C092F802C085F804C092F86A
:4044000003C00EF807C097882F8192F90250002D0DDA012E01D1072700E00D274E000E44B500224E35446F7101266E700CE0012E01D1052700E009274E000E44B5001B4EDF
:4044400035446F7100266E70DFF868E00F010EEB07060125B57001FA05F529448D00134929440D89C5F307250EF807500D89EDB27570CE88F6B20E4D3D44AE71CE88C6F3AE
:404480000726EE71CE88F6B22E71C988C1F30721697108320133DBB2A34292D3F8BD00BF5FDCFF1F54DCFF1FD0DCFF1F64DCFF1F70600040FC5F0040034B1A78034B03EB7D
:4044C000C2035868704700BF3DDCFF1F7C1F010008B5084B18780138C0B2FFF74BFF30B142681279023200EBC203586808BD002008BD00BF5FDCFF1F2DE9F047002310E087
:40450000724D5900CA189600AC190022AA55A270E2702281A272627034462C4462710133DBB2082BECD940B90AE000226849CA546849CA540133DBB200E00023012BF4D942
:40454000654B1B7813F0FF0F00F0BD80624B18780138C0B2FFF70EFF80464368DB7913F0400F05D05D4A137843F00103137004E05A4A137803F0FE03137098F808704FF026
:40458000000A01266FE0D8F80C50002467E0AB7803F07F039E425FD1314606EB460083004A4803441B899BB2A888834206D206EB460E4FEA8E03454A134418812B784448B7
:4045C000C35CDBB26878834246D195F802C0DFF8FCE04B000B4498000EEB000383F804C0EB780EF80030EB7803F0030395F90200002813DA012B02D14FF0070901E04FF0DC
:404600000D09DFF8C8E04B0003EB010C4FEA8C00704480F805900121417012E0012B02D14FF0050901E04FF00909DFF8A0E04B0003EB010C4FEA8C00704480F80590002192
:404640004170AB790A2B01D0022B05D1524631462846FFF74BFB824608350134E4B2BC4295D30136F6B2082E8DD9D8F80C0000220CE0837803F07F0310F8084B03EB430309
:404680009900124B19448C720132D2B2BA42F0D3FFF71EFF124B1860002301210FE00B4D4A00501884002C44E380228992B213449BB203F0010213449BB20131C9B20829AB
:4046C000EDD9FFF705FEBDE8F08700BF64DCFF1FD0DCFF1F44DCFF1F5FDCFF1F61DCFF1F58DCFF1F08B5154B1B7903F07F035A1ED2B2072A20D8590019448A0010490A4482
:40470000917841F0010191700021D170517841F002015170127912F0800F05D01B01094A1A448D23937004E01B01064A1A4489239370FFF7AFFB08BD002008BD0060004064
:4047400064DCFF1FFC5F0040274B1B7903F07F035A1ED2B2072A44D810B5590019448A0022490A44917801F0FE0191700021D1701F4C1801215C01F07F012154517801F0C1
:40478000FD015170127912F0800F13D003EB43018A0016490A445278D2B2012A04D1224602440C23937019E01B01114A1A440D23937013E003EB43018A000C490A44527887
:4047C000D2B2012A05D11B01094A1A440823937004E01B01064A1A4409239370FFF75AFB10BD0020704700BF0060004064DCFF1FFC5F004010B50E4B1C79E4B20D4B1878E4
:404800000138C0B2FFF7B6FD43681B799C4201D9022C0AD8084A135DDBB208490B55044B9B78DBB21355012010BD002010BD00BF006000405FDCFF1FD0DCFF1F44DCFF1F2B
:4048400010B59C4B1B78DBB200219B4A118013F0800F00F0AD80974A5278D2B20A2A00F27481DFE812F06900720172017201720172010B007201920072019A008D4BDB7823
:40488000DBB2012B09D1FFF717FE42688A4B5A6012221A80FFF740FC10BD864BDB78DBB2022B13D1834B9878FFF764FD002800F04E814268804B5A605A68D1785A68927870
:4048C00042EA01221A80FFF727FC10BD794BDB78DBB2032B05D02CE00A7811440133DBB201E000237549734A9278D2B2934203D20A7812F0FF0FEFD16E4B9B7813F0FF0FB8
:404900000BD06C4B9B78DBB26D4A127C934204D16C4C2046FFF7A6FC21460B7813F0FF0F00F017810B78644A13805160FFF7F4FB10BD00F007FD10BD13F0030317D0022B18
:4049400040F009815C490B805A4B1B7903F07F0303EB43039A005C4B1A449278D2B25B4B1A7000225A704B60FFF7D6FB10BD524902230B80564B1A78D2B2544B1A70002296
:404980005A704B60FFF7C8FB10BD4B4B01221A80504A5A60FFF7C0FB10BD474A01231380444B1B794C490B445360FFF7B5FB10BD404A5278013A0A2A00F2CF80DFE812F095
:4049C0004C00CD009800CD000B00CD00CD00CD001300CD003000374B9B78DBB23F4A1370FFF758FA10BD334B9B7803F0FF041BB1601EC0B2FFF7BEFC04B110B9002C40F0A7
:404A0000AE80344B1B78DBB29C4206D0314B1C700120334B1870FFF76FFDFFF73BFA10BDFFF7E8FE002800F09C80224A1379DBB21279D2B22B490A702B4AD25CD2B2264944
:404A4000CB5CDBB29A4204D00122254B1A70FFF7A5FCFFF71FFA10BD03F00303012B17D04BB1022B7FD1134B9B7813F0FF0F7CD1FFF76AFE10BD0F4B9B78DBB2012B76D156
:404A8000134A137803F0FD031370FFF703FA10BD084B1B79DBB2012B6BD8064B98781B79DBB21249CA5C22EA0002CA54FFF7F2F910BD00BF0060004048DCFF1FE41F010073
:404AC000C8200100DCDCFF1F64DCFF1F2CC2FF1F61DCFF1F5FDCFF1FD0DCFF1F5EDCFF1F5CDCFF1F54DCFF1F44DCFF1FD4DCFF1F03F00303012B17D04BB1022B3BD1224B59
:404B00009B7813F0FF0F38D1FFF7ECFD10BD1E4B9B78DBB2012B32D11C4A137843F002031370FFF7B7F910BD174B1B79DBB2012B27D8154B98781B79DBB21549CA5C22EA76
:404B40000002CA54FFF7A6F910BD002010BD002010BD002010BD002010BD002010BD002010BD002010BD002010BD002010BD002010BD002010BD002010BD002010BD00208A
:404B800010BD002010BD00BF0060004061DCFF1FD4DCFF1F044B1B7813F0800F01D0024B5B780020704700BF00600040024B1878C0F38010704700BF8F450040014B1B689F
:404BC0009866704708ED00E04001C0B2014B1870704700BF0AE400E04FF48062014B1A60704700BF00E100E04FF48062014B1A60704700BF80E100E010B50446FFF7F4FFA4
:404C00002046FFF7DBFF0720FFF7DEFFFFF7E4FF10BD00BF014B1B685866704708ED00E04001C0B2014B1870704700BF09E400E04FF40072014B1A60704700BF00E100E04A
:404C40004FF40072014B1A60704700BF80E100E010B50446FFF7F4FF2046FFF7DBFF0720FFF7DEFFFFF7E4FF10BD00BF014B1B68D865704708ED00E04001C0B2014B187056
:404C8000704700BF07E400E08022014B1A60704700E100E08022014B1A60704780E100E010B50446FFF7F6FF2046FFF7DFFF0720FFF7E2FFFFF7E8FF10BD00BF024A137801
:404CC00043F080031370704776640040014B1870704700BF86640040014B1878704700BF66640040014B1860704700BF24640040014B1868704700BF44640040014B1860EA
:404D0000704700BF04640040024B1B78024B1868704700BF046400404464004008B501E0FFF7E6FFFFF7D8FF10F0080FF8D108BD08B54FF0FF30FFF7D5FF4FF0FF30FFF75E
:404D4000DDFF00F055F9064A137843F01003137000F052F9FFF7E2FF0020FFF7B7FF08BD9664004008B5054B1B7823B9FFF7E0FF0122024B1A70FFF7A1FF08BD2EC2FF1FE4
:404D800008B500F093F900F09BF908BD08B5FFF7F7FF08BD30B583B00C468DF8070000F0CFF9B4F5006F52D22509A4EB0514A4B200F072FA00284CD101230DF107022146BA
:404DC000402000F0E9F9044607282FD1234B1B7813F0020FFAD0214B1B7813F0020F06D01E4B1B789B0805D04FF0FF3403E04FF0FF3400E00024E4B9194A5378127829463D
:404E0000402000F005FA072816D1144B1B7813F0020FFAD0114B1B7813F0020F0FD00F4B1B789B0810D04FF0FF340DE0012809D10AE04FF0FF3407E04FF0FF3404E04FF0B1
:404E4000FF3401E04FF0FF3400F04CFA02E0012400E00424204603B030BD00BF22470040D8DCFF1F38B5044600F0C2F8054600F051F904F1804000F500400478E4B200F0D5
:404E800057F9284600F0B8F8204638BD08B500F00DF9C0B208BD00BF014B1B685865704708ED00E04001C0B2014B1870704700BF05E400E02022014B1A60704700E100E032
:404EC0002022014B1A60704780E100E010B50446FFF7F6FF2046FFF7DFFF0720FFF7E2FFFFF7E8FF10BD00BF044A137803F0F703C00000F008001843107070472051004056
:404F0000044A137803F0FB03800000F0040018431070704720510040044A137803F07F03C001C0B218431070704700BF30510040044A137803F0EF03000100F01000184343
:404F400010707047205100400022034B1A70012210331A70704700BF2264004008B5044B1B7823B9FFF7F0FF0122014B1A7008BD2FC2FF1F044B1B7813F0010FFAD1034BE8
:404F800018701033198070476064004042640040014B1B681865704708ED00E04001C0B2014B1870704700BF04E400E01022014B1A60704700E100E01022014B1A60704730
:404FC00080E100E010B50446FFF7F6FF2046FFF7DFFF0720FFF7E2FFFFF7E8FF10BD00BF0230800803D000BF01380046FCD17047EFF3108072B6704780F31088704700BFB4
:4050000010B500F09DF800F047F9D0B900F086F90446072812D102E00120FDF711FD0A4B1B7813F0020FF7D0074B1B7813F0020F04D0054B1B789B0800D1002400F052F957
:4050400000E00424204610BD2247004010B500F077F800F021F910BB012000F0FFF8072818D102210F4800F07DF802280AD102E00120FDF7E5FC0C4B1B7813F0020FF7D0B2
:40508000002409E0084B1B7813F0020FE9D04FF0FF3401E04FF0FF3400F024F900E00424204610BDD8DCFF1F2247004008B5FFF7A7FF034610B9FFF7C9FF0346184608BD13
:4050C00008B5FFF795FF0F4A137843F0080313701032137843F008031370C8220A4B1A700A4A137843F0100313701032137843F010031370064B1B7813F0200FFAD0FFF759
:405100007BFF08BDA043004001470040AC43004000470040054A137843F001031370034B1B7813F0020FFAD0704700BF02470040024A137803F0FE031370704702470040EF
:4051400008B5FFF755FF064A137843F0080313701032137843F008031370FFF74DFF08BDA043004070B506460D4600240CE00120FDF766FC064B1B7813F0010FF7D0054B7B
:405180001B7833550134E4B2AC42F3D3204670BD224700402047004030B43E2801D81F2B03D93F2827D90F2B27D8174C247814F0020F24D0154CB6252570D42525700125FC
:4051C00025700234247814F0020F1AD10F4C2070C1F300202070C9B22170591EC9B22170002104E0545C094804700131C9B29942F8D3072006E0012004E0012002E0042064
:4052000000E0092030BC7047224700402047004030B4104C247814F0020F15D00E4CB6252570D8252570052525700234247814F0020F0BD1084C2070080A2070C9B221702C
:4052400022702370072002E0042000E0092030BC704700BF22470040204700400C4B1B7813F0020F0FD00B4BB6221A70E1221A700E221A7002331B7813F0020F05D1054B43
:40528000187007207047042070470920704700BF224700402047004010B5FFF7A9FE0F4B1B78A3B901220D4B1A700D4B1B6813F0010F0ED00A4A136823F00103136000BF2A
:4052C00000BF00BF0122054B5A60002402E0042400E00024FFF790FE204610BD30C2FF1F0400084008B5FFF783FE0A4B00221A705B68012B0AD1084A136843F00103136048
:4053000000BF00BF00BF0022024B5A60FFF774FE08BD00BF30C2FF1F04000840074B1B7813F0020F08D0064BB6221A70E0221A700D221A7007207047042070472247004094
:405340002047004008B5144B1B7803F00303012B02D0022B04D00FE00F4B1B79DBB20CE00D4B1B7903F07F0303EB43039A000B4B1A44937ADBB200E00023022B07D8084AAB
:405380001268D35C022B04D1FEF770FB08BD002008BD002008BD00BF0060004064DCFF1F58DCFF1F81F0004102E000BF83F0004330B54FEA41044FEA430594EA050F08BFFE
:4053C00090EA020F1FBF54EA000C55EA020C7FEA645C7FEA655C00F0E2804FEA5454D4EB5555B8BF6D420CDD2C4480EA020281EA030382EA000083EA010180EA020281EAAC
:405400000303362D88BF30BD11F0004F4FEA01314FF4801C4CEA113102D0404261EB410113F0004F4FEA03334CEA133302D0524263EB430394EA050F00F0A780A4F1010461
:40544000D5F1200E0DDB02FA0EFC22FA05F2801841F1000103FA0EF2801843FA05F359410EE0A5F120050EF1200E012A03FA0EFC28BF4CF0020C43FA05F3C01851EBE37132
:4054800001F0004507D54FF0000EDCF1000C7EEB00006EEB0101B1F5801F1BD3B1F5001F0CD349085FEA30004FEA3C0C04F101044FEA445212F5800F80F09A80BCF1004FE9
:4054C00008BF5FEA500C50F1000041EB045141EA050130BD5FEA4C0C404141EB010111F4801FA4F10104E9D191F0000F04BF01460020B1FA81F308BF2033A3F10B03B3F1DF
:4055000020020CDA0C3208DD02F1140CC2F10C0201FA0CF021FA02F10CE002F11402D8BFC2F1200C01FA02F120FA0CFCDCBF41EA0C019040E41AA2BF01EB0451294330BD50
:405540006FEA04041F3C1CDA0C340EDC04F11404C4F1200220FA04F001FA02F340EA030021FA04F345EA030130BDC4F10C04C4F1200220FA02F001FA04F340EA03002946D8
:4055800030BD21FA04F0294630BD94F0000F83F4801306BF81F480110134013D4EE77FEA645C18BF7FEA655C29D094EA050F08BF90EA020F05D054EA000C04BF19461046E5
:4055C00030BD91EA030F1EBF0021002030BD5FEA545C05D14000494128BF41F0004130BD14F580043CBF01F5801130BD01F0004545F0FE4141F470014FF0000030BD7FEA66
:40560000645C1ABF194610467FEA655C1CBF0B46024650EA013406BF52EA033591EA030F41F4002130BD00BF90F0000F04BF0021704730B54FF4806404F132044FF00005A2
:405640004FF0000150E700BF90F0000F04BF0021704730B54FF4806404F1320410F0004548BF40424FF000013EE700BF42004FEAE2014FEA31014FEA02701FBF12F07F438B
:4056800093F07F4F81F06051704792F0000F14BF93F07F4F704730B54FF4607401F0004521F0004120E700BF50EA010208BF704730B54FF000050AE050EA010208BF704781
:4056C00030B511F0004502D5404261EB41014FF4806404F132045FEA915C3FF4DCAE4FF003025FEADC0C18BF03325FEADC0C18BF033202EBDC02C2F1200300FA03FC20FAE1
:4057000002F001FA03FE40EA0E0021FA02F11444C1E600BF70B54FF0FF0C4CF4E06C1CEA11541DBF1CEA135594EA0C0F95EA0C0F00F0DEF82C4481EA030621EA4C5123EA35
:405740004C5350EA013518BF52EA033541F4801143F4801338D0A0FB02CE4FF00005E1FB02E506F00042E0FB03E54FF00006E1FB03569CF0000F18BF4EF0010EA4F1FF04F9
:40578000B6F5007F64F5407404D25FEA4E0E6D4146EB060642EAC62141EA55514FEAC52040EA5E504FEACE2EB4F1FD0C88BFBCF5E06F1ED8BEF1004F08BF5FEA500E50F1A5
:4057C000000041EB045170BD06F0004646EA010140EA020081EA0301B4EB5C04C2BFD4EB0C0541EA045170BD41F480114FF0000E013C00F3AB8014F1360FDEBF002001F08F
:40580000004170BDC4F10004203C35DA0C341BDC04F11404C4F1200500FA05F320FA04F001FA05F240EA020001F0004221F0004110EBD37021FA04F642EB06015EEA430EF5
:4058400008BF20EAD37070BDC4F10C04C4F1200500FA04F320FA05F001FA04F240EA020001F0004110EBD37041F100015EEA430E08BF20EAD37070BDC4F1200500FA05F2E3
:405880004EEA020E20FA04F301FA05F243EA020321FA04F001F0004121FA04F220EA020000EBD3705EEA430E08BF20EAD37070BD94F0000F0FD101F00046400041EB0101ED
:4058C00011F4801F08BF013CF7D041EA060195F0000F18BF704703F00046520043EB030313F4801F08BF013DF7D043EA0603704794EA0C0F0CEA135518BF95EA0C0F0CD083
:4059000050EA410618BF52EA4306D1D181EA030101F000414FF0000070BD50EA410606BF1046194652EA430619D094EA0C0F02D150EA013613D195EA0C0F05D152EA0336CC
:405940001CBF104619460AD181EA030101F0004141F0FE4141F470014FF0000070BD41F0FE4141F4780170BD70B54FF0FF0C4CF4E06C1CEA11541DBF1CEA135594EA0C0F05
:4059800095EA0C0F00F0A7F8A4EB050481EA030E52EA03354FEA013100F088804FEA03334FF0805545EA131343EA12634FEA022245EA111545EA10654FEA00260EF0004165
:4059C0009D4208BF964244F1FD0404F5407402D25B084FEA3202B61A65EB03055B084FEA32024FF480104FF4002CB6EB020E75EB030E22BFB61A754640EA0C005B084FEA08
:405A00003202B6EB020E75EB030E22BFB61A754640EA5C005B084FEA3202B6EB020E75EB030E22BFB61A754640EA9C005B084FEA3202B6EB020E75EB030E22BFB61A75469C
:405A400040EADC0055EA060E18D04FEA051545EA16754FEA06164FEAC30343EA52734FEAC2025FEA1C1CC0D111F4801F0BD141EA00014FF000004FF0004CB6E711F4801FCC
:405A800004BF01430020B4F1FD0C88BFBCF5E06F3FF6AFAEB5EB030C04BFB6EB020C5FEA500C50F1000041EB045170BD0EF0004E4EEA113114EB5C04C2BFD4EB0C0541EAE2
:405AC000045170BD41F480114FF0000E013C90E645EA060E8DE60CEA135594EA0C0F08BF95EA0C0F3FF43BAF94EA0C0F0AD150EA01347FF434AF95EA0C0F7FF425AF1046C3
:405B000019462CE795EA0C0F06D152EA03353FF4FDAE1046194622E750EA410618BF52EA43067FF4C5AE50EA41047FF40DAF52EA43057FF4EBAE12E74FEA410212F50012E3
:405B400015D211D56FF47873B3EB625212D94FEAC12343F0004343EA505311F0004F23FA02F018BF404270474FF00000704750EA013005D111F0004008BF6FF00040704766
:405B80004FF00000704700BF4A0011D212F5001211D20DD56FF47873B3EB62520ED44FEAC12343F0004343EA505323FA02F070474FF00000704750EA013002D14FF0FF30D8
:405BC00070474FF0000070474FEA4102B2F1E04324BFB3F5001CDCF1FE5C0DD901F0004C4FEAC0024CEA5070B2F1004F40EB830008BF20F00100704711F0804F21D113F1DF
:405C00003872BCBF01F00040704741F480114FEA5252C2F11802C2F1200C10FA0CF320FA02F018BF40F001004FEAC1234FEAD32303FA0CFC40EA0C0023FA02F34FEA4303D3
:405C4000CCE77FEA625307D150EA01331EBF4FF0FE4040F44000704701F0004040F0FE4040F40000704700BF80F0004002E000BF81F0004142001FBF5FEA410392EA030F01
:405C80007FEA226C7FEA236C6AD04FEA1262D2EB1363C1BFD218414048404140B8BF5B42192B88BF704710F0004F40F4000020F07F4018BF404211F0004F41F4000121F04F
:405CC0007F4118BF494292EA030F3FD0A2F1010241FA03FC10EB0C00C3F1200301FA03F100F0004302D5494260EB4000B0F5000F13D3B0F1807F06D340084FEA310102F16F
:405D00000102FE2A51D2B1F1004F40EBC25008BF20F0010040EA03007047490040EB000010F4000FA2F10102EDD1B0FA80FCACF1080CB2EB0C0200FA0CF0AABF00EBC25072
:405D400052421843BCBFD0401843704792F0000F81F4000106BF80F400000132013BB5E74FEA41037FEA226C18BF7FEA236C21D092EA030F04D092F0000F08BF0846704759
:405D800090EA010F1CBF0020704712F07F4F04D1400028BF40F00040704712F100723CBF00F50000704700F0004343F0FE4040F4000070477FEA226216BF08467FEA23630A
:405DC0000146420206BF5FEA412390EA010F40F4800070474FF0000304E000BF10F0004348BF40425FEA000C08BF704743F0964301464FF000001CE050EA010208BF7047E4
:405E00004FF000030AE000BF50EA010208BF704711F0004302D5404261EB41015FEA010C02BF84460146002043F0B64308BFA3F18053A3F50003BCFA8CF2083AA3EBC2533B
:405E400010DB01FA02FC634400FA02FCC2F12002BCF1004F20FA02F243EB020008BF20F00100704702F1200201FA02FCC2F1200250EA4C0021FA02F243EB020008BF20EA88
:405E8000DC7070474FF0FF0C1CEAD0521EBF1CEAD15392EA0C0F93EA0C0F6FD01A4480EA010C400218BF5FEA41211ED04FF0006343EA501043EA5111A0FB01310CF00040AA
:405EC000B1F5000F3EBF490041EAD3715B0040EA010062F17F02FD2A1DD8B3F1004F40EBC25008BF20F00100704790F0000F0CF0004C08BF49024CEA502040EA51207F3A20
:405F0000C2BFD2F1FF0340EAC250704740F400004FF00003013A5DDC12F1190FDCBF00F000407047C2F10002410021FA02F1C2F1200200FA02FC5FEA310040F1000053EAD8
:405F40004C0308BF20EADC70704792F0000F00F0004C02BF400010F4000F013AF9D040EA0C0093F0000F01F0004C02BF490011F4000F013BF9D041EA0C018FE70CEAD15329
:405F800092EA0C0F18BF93EA0C0F0AD030F0004C18BF31F0004CD8D180EA010000F00040704790F0000F17BF90F0004F084691F0000F91F0004F14D092EA0C0F01D14202E3
:405FC0000FD193EA0C0F03D14B0218BF084608D180EA010000F0004040F0FE4040F40000704740F0FE4040F4400070474FF0FF0C1CEAD0521EBF1CEAD15392EA0C0F93EAF0
:406000000C0F69D0A2EB030280EA010C49024FEA402037D04FF0805343EA111143EA10130CF000408B4238BF5B0042F17D024FF4000C8B4224BF5B1A40EA0C00B3EB510FB2
:4060400024BFA3EB510340EA5C00B3EB910F24BFA3EB910340EA9C00B3EBD10F24BFA3EBD10340EADC001B0118BF5FEA1C1CE0D1FD2A3FF650AF8B4240EBC25008BF20F0A2
:40608000010070470CF0004C4CEA50207F32C2BFD2F1FF0340EAC250704740F400004FF00003013A37E792F0000F00F0004C02BF400010F4000F013AF9D040EA0C0093F0E3
:4060C000000F01F0004C02BF490011F4000F013BF9D041EA0C0195E70CEAD15392EA0C0F08D142027FF47DAF93EA0C0F7FF470AF084676E793EA0C0F04D14B023FF44CAF53
:4061000008466EE730F0004C18BF31F0004CCAD130F000427FF45CAF31F000437FF43CAF5FE700BF4FF0FF3C06E000BF4FF0010C02E000BF4FF0010C4DF804CD4FEA4002E1
:406140004FEA41037FEA226C18BF7FEA236C11D001B052EA530C18BF90EA010F58BFB2EB030088BFC81738BF6FEAE17018BF40F0010070477FEA226C02D15FEA402C05D1BC
:406180007FEA236CE4D15FEA412CE1D05DF8040B704700BF844608466146FFE70FB5FFF7C9FF002848BF10F1000F0FBD4DF808EDFFF7F4FF0CBF012000205DF808FB00BF79
:4061C0004DF808EDFFF7EAFF34BF012000205DF808FB00BF4DF808EDFFF7E0FF94BF012000205DF808FB00BF4DF808EDFFF7D2FF94BF012000205DF808FB00BF4DF808ED9B
:40620000FFF7C8FF34BF012000205DF808FB00BF4FEA4002B2F1FE4F0FD34FF09E03B3EB12620DD94FEA002343F0004310F0004F23FA02F018BF404270474FF000007047FB
:4062400012F1610F01D1420205D110F0004008BF6FF0004070474FF00000704742000ED2B2F1FE4F0BD34FF09E03B3EB126209D44FEA002343F0004323FA02F070474FF0D6
:406280000000704712F1610F01D1420202D14FF0FF3070474FF00000704700BF002101F017BE0000014B1868704700BF78C1FF1F8A892DE9F041054610070C4659D44B6883
:4062C000002B02DC0B6C002B17DDE66AAEB102F48052002392B22F682B600AB1606D15E0216A01232846B047411C0FD12B686BB11D2B01D0162B03D12F600020BDE8F0818F
:40630000A38943F04003A381BDE8F081A3895A0705D56368C01A636B0BB1236CC01A00230246E66A216A2846B047431CA38906D129681D2939D8204ACA40D60735D5002210
:4063400062602269D904226004D5421C01D12B6803B96065616B2F600029CED004F14403994202D0284600F069F900206063BDE8F0810F69002FC0D093070E680CBF4B69CA
:406380000023C7EB06080F608B6002E00744C0EB0808B8F1000FB0DD43463A46216A2846A66AB0470028F1DCA38943F04003A3814FF0FF30BDE8F0810100402038B50B6969
:4063C00005460C46DBB118B183690BB900F072F80C4B9C4201D16C6808E00B4B9C4201D1AC6803E0094B9C4208BFEC68B4F90C302BB121462846BDE83840FFF759BF0020AF
:4064000038BD00BFDC210100FC2101001C220100014620B9044B0549186800F0B7B8044B1868FFF7CBBF00BF40220100BD63000078C1FF1F014900F0A9B800BFBD6300004F
:4064400010B50446002303604360836081814366C281036143618361194608225C3000F0E4F8054B24626362044BA362044BE362044B236310BD00BFF97100001B7200006B
:40648000537200007772000070B568234D1E5D430E4605F1740100F01DF9044640B1002180E842000C30A06005F1680200F0BDF8204670BD836910B5044633BB8364C364DD
:4064C0000365124B124A1B688262984204BF0123836100F01FF86060204600F01BF8A060204600F017F80022E06004216068FFF7A7FF01220921A068FFF7A2FF02221221AC
:40650000E068FFF79DFF0123A36110BD4022010035640000F8B51C4B07461E68B36913B93046FFF7C7FF4836B4687368013B04D4B4F90C507DB16834F8E733680BB136685F
:40654000F2E704213846FFF79FFF30600028F6D10C233B60F8BD4FF6FF73E3810123A38165662560A560656025616561A5610822294604F15C0000F058F86563A563A5643B
:40658000E5642046F8BD00BF402201002DE9F8438046894600F14804002694B1A5686768013F0CD4AB89012B07D9B5F90E30013303D029464046C84706436835F0E724684B
:4065C000EBE73046BDE8F8830E4B70B51E460E4C0025E41AA410A54204D056F8253098470135F8E70BF006FF084B094C1E46E41AA4100025A54204D056F825309847013578
:40660000F8E770BD0024010000240100002401000824010010B5431E0A44914204D011F8014B03F8014FF8E710BD03460244934202D003F8011BFAE77047000038B505462E
:40664000002944D051F8043C0C1F002BB8BFE41802F0F8FE1E4A1368114613B96360146030E0A3420DD92268A018834201BF18685B681218226063600C6023E0A24203D8E4
:4066800013465A68002AF9D118681918A1420BD12168014458188242196013D110685268014419605A600DE002D90C232B6009E021686018824201BF10685268091821608E
:4066C00062605C602846BDE8384002F0BCBE38BD3CC2FF1F70B5CD1C25F0030508350C2D38BF0C25002D064601DBA94202D90C23336046E002F0A6FE234B1C681A462146F9
:40670000A1B10B685B1B0ED40B2B03D90B60CC18CD501EE08C420BBF63684B681360636018BF0C4615E00C464968E9E7174C23681BB9304600F02CFD20602946304600F0DD
:4067400027FD431C18D0C41C24F00304A0420DD12560304602F077FE04F10B00231D20F00700C31A0ED05A42E25070BD211A304600F00EFD0130EBD10C233360304602F0C1
:4067800062FE002070BD00BF3CC2FF1F38C2FF1F2DE9F04788B0149F002B1E461299B8BF03F1004327F02007B6BF1E4600232D23462F1446109DDDF84CA00B7003D0452F90
:4067C00003D1013501E0032300E0022307AA049206AA03928DE828042246334601F0F0FC472F804602D1119BDB0728D5462F08EB050911D198F80030302B0AD1002200236B
:406800002046314603F0CAFD18B9C5F10105CAF80050DAF800309944002200232046314603F0BCFD08B9302202E0CDF81C9006E0079B994503D9591C07911A70F8E74046D1
:40684000079B159AC8EB0303136008B0BDE8F087034673B50029B8BF494203F8022BB4BF2D222B22092942701ADD0DF1070216460A2591FBF5F405FB1411092C01F1300195
:4068800002F8011D2146F4DC3031541E02F8011CB4421A460AD214F8012B03F8012BF7E71A463024214402F8024B5970101A02B070BD00002DE9F04F91B00C46DDF8688059
:4068C00016461F46054602F031FD03681846099300F0D5FC00230E93D8F800300A90073323F0070303F1080294F81890D4F800B0C8F80020D3E90023C4E91223D4F84CA08A
:40690000D4F848802AF000430B934FF0FF32A74B40460B9903F074FDA0B94FF0FF32A34B40460B9903F04EFD60B9002200234046514603F03DFD10B12D2384F843309C4B2A
:406940009C4A0AE0424653464046514603F058FD002800F09281984B984AB9F1470F8CBF90469846032323612BF0040323604FF0000A3DE0B9F1670F00F08A81B9F1470F02
:4069800000F0868123600193636800210DF13302059002920093424653460691CDF81090CDF80CE02846FFF7F3FE09F0DF03472B804600F08481B9F1650F0D9900F28D81FF
:4069C00001394A4604F150000D91FFF741FF0E9A82468318012A236100F37C812268D10700F178819DF8333013B12D2384F84330009733460FAA2146284600F09FF901306C
:406A000002D14FF0FF3096E123685A0501D4236965E0B9F1650F40F2D580D4E912010022002303F0BBFC78B30123654A31462846B8470130E5D00E9B0D9A9A420BDB236845
:406A4000D80708D423689B0740F111814FF0000804F1190906E10A9B099A31462846B8470130CED04FF0000804F11A090E9B013B9845E7DA01234A4631462846B847013080
:406A8000BFD008F10108F1E70D9B002B29DC01234B4A31462846B8470130B2D00D9B23B90E9B13B92368D907CCD50A9B099A31462846B8470130A4D04FF0000904F11A0A0E
:406AC0000D9B5B42994509DA0123524631462846B847013095D009F10109F1E70E9B4246A7E00E9AA36D9A42A8BF1A46002A914606DC4FF0000A29EAE97904F11A0B11E0BF
:406B00001346314642462846B8470130F1D178E701235A4631462846B84701303FF471AF0AF1010AA36DC9EB03029245F0DB08EB03090D9A0E9B9A420FDB2368DA070CD440
:406B40000E9B0D9A9844C9EB08089B1A9845A8BF9846B8F1000F08DC0FE00A9B099A31462846B8470130EBD14BE743464A4631462846B84701303FF444AF4FF0000928EACA
:406B8000E87804F11A0A09E00123524631462846B84701303FF435AF09F101090D9A0E9B9B1AC8EB03039945EEDB4BE7FFFFEF7F44220100482201004C22010050220100D0
:406BC000542201000E9A012A01DCDB0738D50123424631462846B84701303FF412AF0A9B099A31462846B84701303FF40AAFD4E912010022002303F0D1FB20B14FF0000895
:406C000004F11A090EE00E9B08F10102013B19E001234A4631462846B84701303FF4F1AE08F101080E9B013B9845F1DB534604F1500231462846B84701307FF403AFE0E669
:406C40004246012331462846B8470130EED1D8E601234A4631462846B84701303FF4D1AE08F10108E3680F9A9B1A9845F0DBE0680F9B9842B8BF18465DE062680EA8531C3B
:406C80000DF1340E4BF480637FF474AE062201E012B90122626075E6002106910DF133018DE80C00236005904246CDF81090CDF80CE0029153462846FFF76AFD80460D9B43
:406CC000D81C02DB626893421DDDA9F102095FFA89F970E60133236184E6B9F1660F14D10029636807DD216113B92268D2071DD501330B4419E013B92268D00701D50233FF
:406D000013E0012311E04FF067090D9B0E9A934205DB22682361D10708D5013305E0002BD4BFC3F102030123134423610D9B4FF0000AA36556E611B0BDE8F08F2DE9F047DE
:406D400091461F460A698B6806469342B8BF1346C9F8003091F843200C46DDF8208012B10133C9F800302368990642BFD9F800300233C9F80030256815F0060510D104F12F
:406D8000190A07E00123524639463046C04701301AD00135E368D9F800209B1A9D42F1DB94F843302268003318BF012392060FD5E118302081F843005A1C94F8451022442F
:406DC000023382F8431003E04FF0FF30BDE8F08704F1430239463046C0470130F4D02268D9F80050E36802F00602042A08BF5D1B2269A3680CBF25EAE57500259342C4BF55
:406E00009B1AED184FF000091A344D4509D00123224639463046C0470130D5D009F10109F3E70020BDE8F0872DE9F04317460A7E85B06E2A984606460C460C9B01F1430EBE
:406E400000F0AE8011D8632A22D009D8002A00F0BB80582A40F0CA8081F84520834955E0642A1ED0692A1CD0C0E0732A00F0B08009D86F2A2ED0702A40F0B8800A6842F005
:406E800020020A603EE0752A24D0782A3AD0ADE01A6801F14205111D1960136884F84230A8E021681A6811F0800F02D0111D196008E011F0400F02F10401196002D0B2F9CF
:406EC000003000E01368002B3CDA2D225B4284F8432037E021681A6811F0800F02D0111D196007E011F0400F02F10401196001D0138800E01368227E5C496F2A14BF0A2284
:406F000008221BE078225A4984F845202268186812F0800F00F104051D6003D1550601D5038800E00368D00744BF42F0200222601BB9226822F0200222601022002084F88F
:406F4000430001E049490A226568002DA56008DB206820F0040020602BB9002D7DD175460CE0002B79D07546B3FBF2F002FB1033CB5C05F8013D03460028F5D1082A0BD185
:406F80002368DA0708D5236962689A42DEBF302305F8013C05F1FF35C5EB0E0323612EE008681A6810F0800F496903D0101D1860136808E010F0400F02F104001860136868
:406FC00001D0198000E0196000232361754616E01A68111D1960156800216268284602F023FA08B1401B6060636804E004F1420584F8422001232361002384F84330CDF84C
:4070000000803B4603AA21463046FFF797FE013002D14FF0FF3026E023692A4639463046C0470130F5D023689B0710D5002504F1190907E001234A4639463046C0470130BE
:40704000E7D00135E368039A9B1A9D42F2DBE068039B9842B8BF184605E00B7804F1420584F842308AE705B0BDE8F08356220100672201000FB40A4B13B51C6824B1A3692D
:4070800013B92046FFF716FA05AB049AA1682046019302F045FF02B0BDE8104004B0704778C1FF1F38B5084B05461C6824B1A36913B92046FFF7FEF9A26829462046BDE815
:4070C000384003F049B800BF78C1FF1F70B50E46054618B183690BB9FFF7ECF9AB69AC6813B92846FFF7E6F9224B9C4201D16C6808E0214B9C4201D1AC6803E01F4B9C428B
:4071000008BFEC68A3891B0701D523693BB92146284600F04BFF10B14FF0FF3070BD013EA36816F8011F013BA36091B1002B04DAA269934206DB0A2904D023685A1C2260D8
:407140001970EDE72246284600F0CAFE0130E7D1E2E7002B08DA22460A21284600F0C0FE0130D9D00A2070BD23680A205A1C2260187070BDDC210100FC2101001C220100C8
:40718000024B01461868FFF7A1BF00BF78C1FF1F38B5064C0023054608462360FBF75EFA431C02D1236803B12B6038BD00DDFF1F0EB400B54FF402719CB0ADF814106FF0FA
:4071C0000041049107914FF6FF711DAB02900690084853F8042BADF81610006802A9019302F082FD029B00221A701CB05DF804EB03B0704778C1FF1F10B50C46B1F90E10D6
:4072000002F0E0FF0028ABBF636DA3891B1823F48053ACBF6365A38110BD2DE9F0411F468B890546DB050C46164605D502230022B1F90E1002F07EF8A389324623F4805336
